{
  "address": "0x9CfFe20fA1041db0de9862F56Af1816aa61Cb4B8",
  "abi": [
    {
      "inputs": [
        {
          "internalType": "address",
          "name": "_endpoint",
          "type": "address"
        },
        {
          "internalType": "address",
          "name": "_owner",
          "type": "address"
        },
        {
          "components": [
            {
              "internalType": "uint32",
              "name": "dstEid",
              "type": "uint32"
            },
            {
              "internalType": "uint256",
              "name": "limit",
              "type": "uint256"
            },
            {
              "internalType": "uint256",
              "name": "window",
              "type": "uint256"
            }
          ],
          "internalType": "struct RateLimiter.RateLimitConfig[]",
          "name": "_rateLimitConfigs",
          "type": "tuple[]"
        }
      ],
      "stateMutability": "nonpayable",
      "type": "constructor"
    },
    {
      "inputs": [
        {
          "internalType": "address",
          "name": "target",
          "type": "address"
        }
      ],
      "name": "AddressEmptyCode",
      "type": "error"
    },
    {
      "inputs": [
        {
          "internalType": "address",
          "name": "account",
          "type": "address"
        }
      ],
      "name": "AddressInsufficientBalance",
      "type": "error"
    },
    {
      "inputs": [],
      "name": "FailedInnerCall",
      "type": "error"
    },
    {
      "inputs": [],
      "name": "InvalidDelegate",
      "type": "error"
    },
    {
      "inputs": [],
      "name": "InvalidEndpointCall",
      "type": "error"
    },
    {
      "inputs": [],
      "name": "LzTokenUnavailable",
      "type": "error"
    },
    {
      "inputs": [
        {
          "internalType": "uint32",
          "name": "eid",
          "type": "uint32"
        }
      ],
      "name": "NoPeer",
      "type": "error"
    },
    {
      "inputs": [
        {
          "internalType": "uint256",
          "name": "msgValue",
          "type": "uint256"
        }
      ],
      "name": "NotEnoughNative",
      "type": "error"
    },
    {
      "inputs": [
        {
          "internalType": "address",
          "name": "addr",
          "type": "address"
        }
      ],
      "name": "OnlyEndpoint",
      "type": "error"
    },
    {
      "inputs": [
        {
          "internalType": "uint32",
          "name": "eid",
          "type": "uint32"
        },
        {
          "internalType": "bytes32",
          "name": "sender",
          "type": "bytes32"
        }
      ],
      "name": "OnlyPeer",
      "type": "error"
    },
    {
      "inputs": [
        {
          "internalType": "address",
          "name": "owner",
          "type": "address"
        }
      ],
      "name": "OwnableInvalidOwner",
      "type": "error"
    },
    {
      "inputs": [
        {
          "internalType": "address",
          "name": "account",
          "type": "address"
        }
      ],
      "name": "OwnableUnauthorizedAccount",
      "type": "error"
    },
    {
      "inputs": [],
      "name": "RateLimitExceeded",
      "type": "error"
    },
    {
      "inputs": [
        {
          "internalType": "address",
          "name": "token",
          "type": "address"
        }
      ],
      "name": "SafeERC20FailedOperation",
      "type": "error"
    },
    {
      "anonymous": false,
      "inputs": [
        {
          "indexed": true,
          "internalType": "uint32",
          "name": "srcEid",
          "type": "uint32"
        },
        {
          "indexed": false,
          "internalType": "string",
          "name": "sender",
          "type": "string"
        },
        {
          "indexed": false,
          "internalType": "string",
          "name": "data",
          "type": "string"
        },
        {
          "indexed": false,
          "internalType": "string",
          "name": "key",
          "type": "string"
        }
      ],
      "name": "MessageReceived",
      "type": "event"
    },
    {
      "anonymous": false,
      "inputs": [
        {
          "indexed": true,
          "internalType": "uint32",
          "name": "dstEid",
          "type": "uint32"
        },
        {
          "indexed": false,
          "internalType": "string",
          "name": "sender",
          "type": "string"
        },
        {
          "indexed": false,
          "internalType": "string",
          "name": "data",
          "type": "string"
        },
        {
          "indexed": false,
          "internalType": "string",
          "name": "key",
          "type": "string"
        }
      ],
      "name": "MessageSent",
      "type": "event"
    },
    {
      "anonymous": false,
      "inputs": [
        {
          "indexed": true,
          "internalType": "address",
          "name": "previousOwner",
          "type": "address"
        },
        {
          "indexed": true,
          "internalType": "address",
          "name": "newOwner",
          "type": "address"
        }
      ],
      "name": "OwnershipTransferred",
      "type": "event"
    },
    {
      "anonymous": false,
      "inputs": [
        {
          "indexed": false,
          "internalType": "uint32",
          "name": "eid",
          "type": "uint32"
        },
        {
          "indexed": false,
          "internalType": "bytes32",
          "name": "peer",
          "type": "bytes32"
        }
      ],
      "name": "PeerSet",
      "type": "event"
    },
    {
      "anonymous": false,
      "inputs": [
        {
          "components": [
            {
              "internalType": "uint32",
              "name": "dstEid",
              "type": "uint32"
            },
            {
              "internalType": "uint256",
              "name": "limit",
              "type": "uint256"
            },
            {
              "internalType": "uint256",
              "name": "window",
              "type": "uint256"
            }
          ],
          "indexed": false,
          "internalType": "struct RateLimiter.RateLimitConfig[]",
          "name": "rateLimitConfigs",
          "type": "tuple[]"
        }
      ],
      "name": "RateLimitsChanged",
      "type": "event"
    },
    {
      "inputs": [],
      "name": "SEND_MESSAGE",
      "outputs": [
        {
          "internalType": "uint16",
          "name": "",
          "type": "uint16"
        }
      ],
      "stateMutability": "view",
      "type": "function"
    },
    {
      "inputs": [
        {
          "components": [
            {
              "internalType": "uint32",
              "name": "srcEid",
              "type": "uint32"
            },
            {
              "internalType": "bytes32",
              "name": "sender",
              "type": "bytes32"
            },
            {
              "internalType": "uint64",
              "name": "nonce",
              "type": "uint64"
            }
          ],
          "internalType": "struct Origin",
          "name": "origin",
          "type": "tuple"
        }
      ],
      "name": "allowInitializePath",
      "outputs": [
        {
          "internalType": "bool",
          "name": "",
          "type": "bool"
        }
      ],
      "stateMutability": "view",
      "type": "function"
    },
    {
      "inputs": [],
      "name": "endpoint",
      "outputs": [
        {
          "internalType": "contract ILayerZeroEndpointV2",
          "name": "",
          "type": "address"
        }
      ],
      "stateMutability": "view",
      "type": "function"
    },
    {
      "inputs": [
        {
          "internalType": "uint32",
          "name": "_dstEid",
          "type": "uint32"
        }
      ],
      "name": "getAmountCanBeSent",
      "outputs": [
        {
          "internalType": "uint256",
          "name": "currentAmountInFlight",
          "type": "uint256"
        },
        {
          "internalType": "uint256",
          "name": "amountCanBeSent",
          "type": "uint256"
        }
      ],
      "stateMutability": "view",
      "type": "function"
    },
    {
      "inputs": [
        {
          "components": [
            {
              "internalType": "uint32",
              "name": "srcEid",
              "type": "uint32"
            },
            {
              "internalType": "bytes32",
              "name": "sender",
              "type": "bytes32"
            },
            {
              "internalType": "uint64",
              "name": "nonce",
              "type": "uint64"
            }
          ],
          "internalType": "struct Origin",
          "name": "",
          "type": "tuple"
        },
        {
          "internalType": "bytes",
          "name": "",
          "type": "bytes"
        },
        {
          "internalType": "address",
          "name": "_sender",
          "type": "address"
        }
      ],
      "name": "isComposeMsgSender",
      "outputs": [
        {
          "internalType": "bool",
          "name": "",
          "type": "bool"
        }
      ],
      "stateMutability": "view",
      "type": "function"
    },
    {
      "inputs": [
        {
          "components": [
            {
              "internalType": "uint32",
              "name": "srcEid",
              "type": "uint32"
            },
            {
              "internalType": "bytes32",
              "name": "sender",
              "type": "bytes32"
            },
            {
              "internalType": "uint64",
              "name": "nonce",
              "type": "uint64"
            }
          ],
          "internalType": "struct Origin",
          "name": "_origin",
          "type": "tuple"
        },
        {
          "internalType": "bytes32",
          "name": "_guid",
          "type": "bytes32"
        },
        {
          "internalType": "bytes",
          "name": "_message",
          "type": "bytes"
        },
        {
          "internalType": "address",
          "name": "_executor",
          "type": "address"
        },
        {
          "internalType": "bytes",
          "name": "_extraData",
          "type": "bytes"
        }
      ],
      "name": "lzReceive",
      "outputs": [],
      "stateMutability": "payable",
      "type": "function"
    },
    {
      "inputs": [
        {
          "internalType": "uint32",
          "name": "",
          "type": "uint32"
        },
        {
          "internalType": "bytes32",
          "name": "",
          "type": "bytes32"
        }
      ],
      "name": "nextNonce",
      "outputs": [
        {
          "internalType": "uint64",
          "name": "nonce",
          "type": "uint64"
        }
      ],
      "stateMutability": "view",
      "type": "function"
    },
    {
      "inputs": [],
      "name": "oAppVersion",
      "outputs": [
        {
          "internalType": "uint64",
          "name": "senderVersion",
          "type": "uint64"
        },
        {
          "internalType": "uint64",
          "name": "receiverVersion",
          "type": "uint64"
        }
      ],
      "stateMutability": "pure",
      "type": "function"
    },
    {
      "inputs": [],
      "name": "owner",
      "outputs": [
        {
          "internalType": "address",
          "name": "",
          "type": "address"
        }
      ],
      "stateMutability": "view",
      "type": "function"
    },
    {
      "inputs": [
        {
          "internalType": "uint32",
          "name": "eid",
          "type": "uint32"
        }
      ],
      "name": "peers",
      "outputs": [
        {
          "internalType": "bytes32",
          "name": "peer",
          "type": "bytes32"
        }
      ],
      "stateMutability": "view",
      "type": "function"
    },
    {
      "inputs": [
        {
          "internalType": "uint32",
          "name": "_dstEid",
          "type": "uint32"
        },
        {
          "internalType": "string",
          "name": "sender",
          "type": "string"
        },
        {
          "internalType": "string",
          "name": "data",
          "type": "string"
        },
        {
          "internalType": "string",
          "name": "key",
          "type": "string"
        }
      ],
      "name": "quote",
      "outputs": [
        {
          "components": [
            {
              "internalType": "uint256",
              "name": "nativeFee",
              "type": "uint256"
            },
            {
              "internalType": "uint256",
              "name": "lzTokenFee",
              "type": "uint256"
            }
          ],
          "internalType": "struct MessagingFee",
          "name": "fee",
          "type": "tuple"
        }
      ],
      "stateMutability": "view",
      "type": "function"
    },
    {
      "inputs": [
        {
          "internalType": "uint32",
          "name": "dstEid",
          "type": "uint32"
        }
      ],
      "name": "rateLimits",
      "outputs": [
        {
          "internalType": "uint256",
          "name": "amountInFlight",
          "type": "uint256"
        },
        {
          "internalType": "uint256",
          "name": "lastUpdated",
          "type": "uint256"
        },
        {
          "internalType": "uint256",
          "name": "limit",
          "type": "uint256"
        },
        {
          "internalType": "uint256",
          "name": "window",
          "type": "uint256"
        }
      ],
      "stateMutability": "view",
      "type": "function"
    },
    {
      "inputs": [],
      "name": "renounceOwnership",
      "outputs": [],
      "stateMutability": "nonpayable",
      "type": "function"
    },
    {
      "inputs": [
        {
          "internalType": "uint32[]",
          "name": "dstEids",
          "type": "uint32[]"
        },
        {
          "internalType": "string",
          "name": "sender",
          "type": "string"
        },
        {
          "internalType": "string",
          "name": "data",
          "type": "string"
        },
        {
          "internalType": "string",
          "name": "key",
          "type": "string"
        }
      ],
      "name": "sendMessage",
      "outputs": [],
      "stateMutability": "payable",
      "type": "function"
    },
    {
      "inputs": [
        {
          "internalType": "address",
          "name": "_delegate",
          "type": "address"
        }
      ],
      "name": "setDelegate",
      "outputs": [],
      "stateMutability": "nonpayable",
      "type": "function"
    },
    {
      "inputs": [
        {
          "internalType": "uint32",
          "name": "_eid",
          "type": "uint32"
        },
        {
          "internalType": "bytes32",
          "name": "_peer",
          "type": "bytes32"
        }
      ],
      "name": "setPeer",
      "outputs": [],
      "stateMutability": "nonpayable",
      "type": "function"
    },
    {
      "inputs": [
        {
          "components": [
            {
              "internalType": "uint32",
              "name": "dstEid",
              "type": "uint32"
            },
            {
              "internalType": "uint256",
              "name": "limit",
              "type": "uint256"
            },
            {
              "internalType": "uint256",
              "name": "window",
              "type": "uint256"
            }
          ],
          "internalType": "struct RateLimiter.RateLimitConfig[]",
          "name": "_rateLimitConfigs",
          "type": "tuple[]"
        }
      ],
      "name": "setRateLimits",
      "outputs": [],
      "stateMutability": "nonpayable",
      "type": "function"
    },
    {
      "inputs": [
        {
          "internalType": "address",
          "name": "newOwner",
          "type": "address"
        }
      ],
      "name": "transferOwnership",
      "outputs": [],
      "stateMutability": "nonpayable",
      "type": "function"
    },
    {
      "inputs": [],
      "name": "withdraw",
      "outputs": [],
      "stateMutability": "nonpayable",
      "type": "function"
    }
  ],
  "transactionHash": "0xb164d30f0faeed8cb33ae432f1773cf9e2cd16481a1b1a725a5ce4ac3e1a9379",
  "args": [
    "0x6EDCE65403992e310A62460808c4b910D972f10f",
    "0xF54ab80D517f96d9f5E4Aa4303be13CDE071E8aF",
    [
      {
        "dstEid": 1,
        "limit": 1000,
        "window": 3600
      }
    ]
  ],
  "numDeployments": 1,
  "solcInputHash": "376a3202c66c3d7e2f7787eb251c307b",
  "bytecode": "0x60a06040523480156200001157600080fd5b50604051620023ff380380620023ff833981016040819052620000349162000428565b82828181806001600160a01b0381166200006857604051631e4fbdf760e01b81526000600482015260240160405180910390fd5b620000738162000121565b506001600160a01b038083166080528116620000a257604051632d618d8160e21b815260040160405180910390fd5b60805160405163ca5eb5e160e01b81526001600160a01b0383811660048301529091169063ca5eb5e190602401600060405180830381600087803b158015620000ea57600080fd5b505af1158015620000ff573d6000803e3d6000fd5b505050505050505062000118816200017160201b60201c565b50505062000643565b600080546001600160a01b038381166001600160a01b0319831681178455604051919092169283917f8be0079c531659141344cd1fd0a4f28419497f9722a3daafe3b4186f6b6457e09190a35050565b60005b8151811015620002505760006002600084848151811062000199576200019962000547565b60200260200101516000015163ffffffff1663ffffffff1681526020019081526020016000209050620001f4838381518110620001da57620001da62000547565b60200260200101516000015160006200028d60201b60201c565b82828151811062000209576200020962000547565b602002602001015160200151816002018190555082828151811062000232576200023262000547565b60209081029190910101516040015160039091015560010162000174565b507fe888347665897e637801f36c5129f510657276178c89022bc5fa0246dbc19de1816040516200028291906200055d565b60405180910390a150565b63ffffffff821660009081526002602081905260408220805460018201549282015460038301549294938493620002c693929062000307565b9150915080841115620002ec5760405163a74c1c5f60e01b815260040160405180910390fd5b620002f88483620005d4565b83555050426001909101555050565b60008080620003178642620005f0565b90508381106200032e57600092508491506200038d565b6000846200033d838862000606565b62000349919062000620565b9050808811156200036657620003608189620005f0565b62000369565b60005b9350838611156200038657620003808487620005f0565b62000389565b60005b9250505b5094509492505050565b80516001600160a01b0381168114620003af57600080fd5b919050565b634e487b7160e01b600052604160045260246000fd5b604051606081016001600160401b0381118282101715620003ef57620003ef620003b4565b60405290565b604051601f8201601f191681016001600160401b0381118282101715620004205762000420620003b4565b604052919050565b600080600060608085870312156200043f57600080fd5b6200044a8562000397565b935060206200045b81870162000397565b604087810151919550906001600160401b03808211156200047b57600080fd5b818901915089601f8301126200049057600080fd5b815181811115620004a557620004a5620003b4565b620004b5858260051b01620003f5565b8181528581019250606090910283018501908b821115620004d557600080fd5b928501925b81841015620005365786848d031215620004f45760008081fd5b620004fe620003ca565b845163ffffffff81168114620005145760008081fd5b81528487015187820152858501518682015283529286019291850191620004da565b809750505050505050509250925092565b634e487b7160e01b600052603260045260246000fd5b602080825282518282018190526000919060409081850190868401855b82811015620005b1578151805163ffffffff168552868101518786015285015185850152606090930192908501906001016200057a565b5091979650505050505050565b634e487b7160e01b600052601160045260246000fd5b80820180821115620005ea57620005ea620005be565b92915050565b81810381811115620005ea57620005ea620005be565b8082028115828204841417620005ea57620005ea620005be565b6000826200063e57634e487b7160e01b600052601260045260246000fd5b500490565b608051611d7662000689600039600081816101f70152818161044c01528181610a0301528181610cf401528181610df20152818161114101526111f80152611d766000f3fe6080604052600436106101145760003560e01c8063715018a6116100a0578063bb0b6a5311610064578063bb0b6a531461037a578063c272198d146103b5578063ca5eb5e1146103ea578063f2fde38b1461040a578063ff7bd03d1461042a57600080fd5b8063715018a61461026c5780637d25a05e1461028157806382413eac146102b95780638da5cb5b146102f8578063ab99095d1461031657600080fd5b80633ccfd60b116100e75780633ccfd60b1461018857806346f943e91461019d5780635532d645146101bd5780635e280f11146101e5578063641b807a1461023157600080fd5b806313137d651461011957806317442b701461012e5780632f137df4146101555780633400288b14610168575b600080fd5b61012c6101273660046114d0565b61044a565b005b34801561013a57600080fd5b50604080516001815260026020820152015b60405180910390f35b61012c610163366004611639565b61050a565b34801561017457600080fd5b5061012c610183366004611732565b610840565b34801561019457600080fd5b5061012c610856565b3480156101a957600080fd5b5061012c6101b836600461175c565b61089b565b3480156101c957600080fd5b506101d2600181565b60405161ffff909116815260200161014c565b3480156101f157600080fd5b506102197f000000000000000000000000000000000000000000000000000000000000000081565b6040516001600160a01b03909116815260200161014c565b34801561023d57600080fd5b5061025161024c3660046117d0565b6108fe565b6040805182518152602092830151928101929092520161014c565b34801561027857600080fd5b5061012c61095f565b34801561028d57600080fd5b506102a161029c366004611732565b610973565b6040516001600160401b03909116815260200161014c565b3480156102c557600080fd5b506102e86102d4366004611868565b6001600160a01b0381163014949350505050565b604051901515815260200161014c565b34801561030457600080fd5b506000546001600160a01b0316610219565b34801561032257600080fd5b5061035a6103313660046118ce565b600260208190526000918252604090912080546001820154928201546003909201549092919084565b60408051948552602085019390935291830152606082015260800161014c565b34801561038657600080fd5b506103a76103953660046118ce565b60016020526000908152604090205481565b60405190815260200161014c565b3480156103c157600080fd5b506103d56103d03660046118ce565b61097c565b6040805192835260208301919091520161014c565b3480156103f657600080fd5b5061012c6104053660046118e9565b6109dc565b34801561041657600080fd5b5061012c6104253660046118e9565b610a62565b34801561043657600080fd5b506102e8610445366004611906565b610a9d565b7f00000000000000000000000000000000000000000000000000000000000000006001600160a01b0316331461049a576040516391ac5e4f60e01b81523360048201526024015b60405180910390fd5b602087018035906104b4906104af908a6118ce565b610ad3565b146104f2576104c660208801886118ce565b60405163309afaf360e21b815263ffffffff909116600482015260208801356024820152604401610491565b61050187878787878787610b0f565b50505050505050565b60045460ff161561054e5760405162461bcd60e51b815260206004820152600e60248201526d1499595b9d1c985b9d0818d85b1b60921b6044820152606401610491565b6004805460ff1916600117905582516105a25760405162461bcd60e51b815260206004820152601660248201527553656e6465722063616e6e6f7420626520656d70747960501b6044820152606401610491565b60008251116105ea5760405162461bcd60e51b8152602060048201526014602482015273446174612063616e6e6f7420626520656d70747960601b6044820152606401610491565b60008151116106315760405162461bcd60e51b81526020600482015260136024820152724b65792063616e6e6f7420626520656d70747960681b6044820152606401610491565b600083838360405160200161064893929190611972565b60405160208183030381529060405290506000805b868110156107a95761069688888381811061067a5761067a6119ab565b905060200201602081019061068f91906118ce565b6001610c69565b604080516020810190915260008082526106d98a8a858181106106bb576106bb6119ab565b90506020020160208101906106d091906118ce565b86846000610cde565b80519091506106e890856119d7565b93506107368a8a858181106106ff576106ff6119ab565b905060200201602081019061071491906118ce565b8684604051806040016040528086600001518152602001600081525033610dbf565b50898984818110610749576107496119ab565b905060200201602081019061075e91906118ce565b63ffffffff167fc7038e6fe58091dcb1c0df6cb33f9e52f657b70ca86f51bdc4a4f1669d63b18f89898960405161079793929190611972565b60405180910390a2505060010161065d565b50803410156107ed5760405162461bcd60e51b815260206004820152601060248201526f496e73756666696369656e742066656560801b6044820152606401610491565b8034111561082d57336108fc61080383346119ea565b6040518115909202916000818181858888f1935050505015801561082b573d6000803e3d6000fd5b505b50506004805460ff191690555050505050565b610848610ebf565b6108528282610eec565b5050565b61085e610ebf565b600080546040516001600160a01b03909116914780156108fc02929091818181858888f19350505050158015610898573d6000803e3d6000fd5b50565b6108a3610ebf565b6108528282808060200260200160405190810160405280939291908181526020016000905b828210156108f4576108e5606083028601368190038101906119fd565b815260200190600101906108c8565b5050505050610f41565b6040805180820190915260008082526020820152600084848460405160200161092993929190611972565b60408051601f1981840301815260208301909152600080835290925061095490889084908490610cde565b979650505050505050565b610967610ebf565b6109716000611045565b565b60005b92915050565b63ffffffff811660009081526002602081815260408084208151608081018352815480825260018301549482018590529482015492810183905260039091015460608201819052859491936109d2939091611095565b9250925050915091565b6109e4610ebf565b60405163ca5eb5e160e01b81526001600160a01b0382811660048301527f0000000000000000000000000000000000000000000000000000000000000000169063ca5eb5e190602401600060405180830381600087803b158015610a4757600080fd5b505af1158015610a5b573d6000803e3d6000fd5b5050505050565b610a6a610ebf565b6001600160a01b038116610a9457604051631e4fbdf760e01b815260006004820152602401610491565b61089881611045565b6000602082018035906001908390610ab590866118ce565b63ffffffff1681526020810191909152604001600020541492915050565b63ffffffff8116600090815260016020526040812054806109765760405163f6ff4fb760e01b815263ffffffff84166004820152602401610491565b6000610b216060890160408a01611a55565b905060036000610b3460208b018b6118ce565b63ffffffff168152602081019190915260400160002054610b5f906001600160401b03166001611a72565b6001600160401b0316816001600160401b031614610baf5760405162461bcd60e51b815260206004820152600d60248201526c496e76616c6964206e6f6e636560981b6044820152606401610491565b8060036000610bc160208c018c6118ce565b63ffffffff16815260208101919091526040016000908120805467ffffffffffffffff19166001600160401b0393909316929092179091558080610c078989018a611a99565b91945092509050610c1b60208c018c6118ce565b63ffffffff167f9507536125af879f7b5c57b2e38d28b900fe1676221d6b6a934ae5c4d920c0d3848484604051610c5493929190611972565b60405180910390a25050505050505050505050565b63ffffffff821660009081526002602081905260408220805460018201549282015460038301549294938493610ca0939290611095565b9150915080841115610cc55760405163a74c1c5f60e01b815260040160405180910390fd5b610ccf84836119d7565b83555050426001909101555050565b60408051808201909152600080825260208201527f00000000000000000000000000000000000000000000000000000000000000006001600160a01b031663ddc28c586040518060a001604052808863ffffffff168152602001610d4189610ad3565b8152602001878152602001868152602001851515815250306040518363ffffffff1660e01b8152600401610d76929190611b20565b6040805180830381865afa158015610d92573d6000803e3d6000fd5b505050506040513d601f19601f82011682018060405250810190610db69190611be7565b95945050505050565b610dc7611414565b6000610dd68460000151611115565b602085015190915015610df057610df0846020015161113d565b7f00000000000000000000000000000000000000000000000000000000000000006001600160a01b0316632637a450826040518060a001604052808b63ffffffff168152602001610e408c610ad3565b81526020018a815260200189815260200160008960200151111515815250866040518463ffffffff1660e01b8152600401610e7c929190611b20565b60806040518083038185885af1158015610e9a573d6000803e3d6000fd5b50505050506040513d601f19601f820116820180604052508101906109549190611c03565b6000546001600160a01b031633146109715760405163118cdaa760e01b8152336004820152602401610491565b63ffffffff8216600081815260016020908152604091829020849055815192835282018390527f238399d427b947898edb290f5ff0f9109849b1c3ba196a42e35f00c50a54b98b910160405180910390a15050565b60005b815181101561100a57600060026000848481518110610f6557610f656119ab565b60200260200101516000015163ffffffff1663ffffffff1681526020019081526020016000209050610fb5838381518110610fa257610fa26119ab565b6020026020010151600001516000610c69565b828281518110610fc757610fc76119ab565b6020026020010151602001518160020181905550828281518110610fed57610fed6119ab565b602090810291909101015160400151600390910155600101610f44565b507fe888347665897e637801f36c5129f510657276178c89022bc5fa0246dbc19de18160405161103a9190611c4d565b60405180910390a150565b600080546001600160a01b038381166001600160a01b0319831681178455604051919092169283917f8be0079c531659141344cd1fd0a4f28419497f9722a3daafe3b4186f6b6457e09190a35050565b600080806110a386426119ea565b90508381106110b8576000925084915061110b565b6000846110c58388611cac565b6110cf9190611cc3565b9050808811156110e8576110e381896119ea565b6110eb565b60005b935083861115611104576110ff84876119ea565b611107565b60005b9250505b5094509492505050565b6000813414611139576040516304fb820960e51b8152346004820152602401610491565b5090565b60007f00000000000000000000000000000000000000000000000000000000000000006001600160a01b031663e4fe1d946040518163ffffffff1660e01b8152600401602060405180830381865afa15801561119d573d6000803e3d6000fd5b505050506040513d601f19601f820116820180604052508101906111c19190611ce5565b90506001600160a01b0381166111ea576040516329b99a9560e11b815260040160405180910390fd5b6040805133602482018190527f00000000000000000000000000000000000000000000000000000000000000006001600160a01b03818116604485015260648085018890528551808603909101815260849094019094526020830180516001600160e01b03166323b872dd60e01b17905261085293851692869061126f908590611275565b50505050565b600061128a6001600160a01b038416836112dd565b905080516000141580156112af5750808060200190518101906112ad9190611d02565b155b156112d857604051635274afe760e01b81526001600160a01b0384166004820152602401610491565b505050565b60606112eb838360006112f2565b9392505050565b6060814710156113175760405163cd78605960e01b8152306004820152602401610491565b600080856001600160a01b031684866040516113339190611d24565b60006040518083038185875af1925050503d8060008114611370576040519150601f19603f3d011682016040523d82523d6000602084013e611375565b606091505b509150915061138586838361138f565b9695505050505050565b6060826113a45761139f826113eb565b6112eb565b81511580156113bb57506001600160a01b0384163b155b156113e457604051639996b31560e01b81526001600160a01b0385166004820152602401610491565b50806112eb565b8051156113fb5780518082602001fd5b604051630a12f52160e11b815260040160405180910390fd5b60405180606001604052806000801916815260200160006001600160401b03168152602001611456604051806040016040528060008152602001600081525090565b905290565b60006060828403121561146d57600080fd5b50919050565b60008083601f84011261148557600080fd5b5081356001600160401b0381111561149c57600080fd5b6020830191508360208285010111156114b457600080fd5b9250929050565b6001600160a01b038116811461089857600080fd5b600080600080600080600060e0888a0312156114eb57600080fd5b6114f5898961145b565b96506060880135955060808801356001600160401b038082111561151857600080fd5b6115248b838c01611473565b909750955060a08a01359150611539826114bb565b90935060c0890135908082111561154f57600080fd5b5061155c8a828b01611473565b989b979a50959850939692959293505050565b634e487b7160e01b600052604160045260246000fd5b604051606081016001600160401b03811182821017156115a7576115a761156f565b60405290565b600082601f8301126115be57600080fd5b81356001600160401b03808211156115d8576115d861156f565b604051601f8301601f19908116603f011681019082821181831017156116005761160061156f565b8160405283815286602085880101111561161957600080fd5b836020870160208301376000602085830101528094505050505092915050565b60008060008060006080868803121561165157600080fd5b85356001600160401b038082111561166857600080fd5b818801915088601f83011261167c57600080fd5b81358181111561168b57600080fd5b8960208260051b85010111156116a057600080fd5b6020928301975095509087013590808211156116bb57600080fd5b6116c789838a016115ad565b945060408801359150808211156116dd57600080fd5b6116e989838a016115ad565b935060608801359150808211156116ff57600080fd5b5061170c888289016115ad565b9150509295509295909350565b803563ffffffff8116811461172d57600080fd5b919050565b6000806040838503121561174557600080fd5b61174e83611719565b946020939093013593505050565b6000806020838503121561176f57600080fd5b82356001600160401b038082111561178657600080fd5b818501915085601f83011261179a57600080fd5b8135818111156117a957600080fd5b8660206060830285010111156117be57600080fd5b60209290920196919550909350505050565b600080600080608085870312156117e657600080fd5b6117ef85611719565b935060208501356001600160401b038082111561180b57600080fd5b611817888389016115ad565b9450604087013591508082111561182d57600080fd5b611839888389016115ad565b9350606087013591508082111561184f57600080fd5b5061185c878288016115ad565b91505092959194509250565b60008060008060a0858703121561187e57600080fd5b611888868661145b565b935060608501356001600160401b038111156118a357600080fd5b6118af87828801611473565b90945092505060808501356118c3816114bb565b939692955090935050565b6000602082840312156118e057600080fd5b6112eb82611719565b6000602082840312156118fb57600080fd5b81356112eb816114bb565b60006060828403121561191857600080fd5b6112eb838361145b565b60005b8381101561193d578181015183820152602001611925565b50506000910152565b6000815180845261195e816020860160208601611922565b601f01601f19169290920160200192915050565b6060815260006119856060830186611946565b82810360208401526119978186611946565b905082810360408401526113858185611946565b634e487b7160e01b600052603260045260246000fd5b634e487b7160e01b600052601160045260246000fd5b80820180821115610976576109766119c1565b81810381811115610976576109766119c1565b600060608284031215611a0f57600080fd5b611a17611585565b611a2083611719565b815260208301356020820152604083013560408201528091505092915050565b6001600160401b038116811461089857600080fd5b600060208284031215611a6757600080fd5b81356112eb81611a40565b6001600160401b03818116838216019080821115611a9257611a926119c1565b5092915050565b600080600060608486031215611aae57600080fd5b83356001600160401b0380821115611ac557600080fd5b611ad1878388016115ad565b94506020860135915080821115611ae757600080fd5b611af3878388016115ad565b93506040860135915080821115611b0957600080fd5b50611b16868287016115ad565b9150509250925092565b6040815263ffffffff8351166040820152602083015160608201526000604084015160a06080840152611b5660e0840182611946565b90506060850151603f198483030160a0850152611b738282611946565b60809690960151151560c08501525050506001600160a01b039190911660209091015290565b600060408284031215611bab57600080fd5b604051604081018181106001600160401b0382111715611bcd57611bcd61156f565b604052825181526020928301519281019290925250919050565b600060408284031215611bf957600080fd5b6112eb8383611b99565b600060808284031215611c1557600080fd5b611c1d611585565b825181526020830151611c2f81611a40565b6020820152611c418460408501611b99565b60408201529392505050565b602080825282518282018190526000919060409081850190868401855b82811015611c9f578151805163ffffffff16855286810151878601528501518585015260609093019290850190600101611c6a565b5091979650505050505050565b8082028115828204841417610976576109766119c1565b600082611ce057634e487b7160e01b600052601260045260246000fd5b500490565b600060208284031215611cf757600080fd5b81516112eb816114bb565b600060208284031215611d1457600080fd5b815180151581146112eb57600080fd5b60008251611d36818460208701611922565b919091019291505056fea2646970667358221220da0db46e6af5214cd63d178b6d997c5eee133bd5d67a360b7b66e64d1e8cf39064736f6c63430008160033",
  "devdoc": {
    "errors": {
      "AddressEmptyCode(address)": [
        {
          "details": "There's no code at `target` (it is not a contract)."
        }
      ],
      "AddressInsufficientBalance(address)": [
        {
          "details": "The ETH balance of the account is not enough to perform the operation."
        }
      ],
      "FailedInnerCall()": [
        {
          "details": "A call to an address target failed. The target may have reverted."
        }
      ],
      "OwnableInvalidOwner(address)": [
        {
          "details": "The owner is not a valid owner account. (eg. `address(0)`)"
        }
      ],
      "OwnableUnauthorizedAccount(address)": [
        {
          "details": "The caller account is not authorized to perform an operation."
        }
      ],
      "SafeERC20FailedOperation(address)": [
        {
          "details": "An operation with an ERC20 token failed."
        }
      ]
    },
    "events": {
      "RateLimitsChanged((uint32,uint256,uint256)[])": {
        "params": {
          "rateLimitConfigs": "An array of `RateLimitConfig` structs representing the rate limit configurations set. - `dstEid`: The destination endpoint id. - `limit`: This represents the maximum allowed amount within a given window. - `window`: Defines the duration of the rate limiting window."
        }
      }
    },
    "kind": "dev",
    "methods": {
      "allowInitializePath((uint32,bytes32,uint64))": {
        "details": "This indicates to the endpoint that the OApp has enabled msgs for this particular path to be received.This defaults to assuming if a peer has been set, its initialized. Can be overridden by the OApp if there is other logic to determine this.",
        "params": {
          "origin": "The origin information containing the source endpoint and sender address."
        },
        "returns": {
          "_0": "Whether the path has been initialized."
        }
      },
      "getAmountCanBeSent(uint32)": {
        "params": {
          "_dstEid": "The destination endpoint id."
        },
        "returns": {
          "amountCanBeSent": "The amount that can be sent.",
          "currentAmountInFlight": "The current amount that was sent."
        }
      },
      "isComposeMsgSender((uint32,bytes32,uint64),bytes,address)": {
        "details": "_origin The origin information containing the source endpoint and sender address.  - srcEid: The source chain endpoint ID.  - sender: The sender address on the src chain.  - nonce: The nonce of the message._message The lzReceive payload.Applications can optionally choose to implement separate composeMsg senders that are NOT the bridging layer.The default sender IS the OAppReceiver implementer.",
        "params": {
          "_sender": "The sender address."
        },
        "returns": {
          "_0": "isSender Is a valid sender."
        }
      },
      "lzReceive((uint32,bytes32,uint64),bytes32,bytes,address,bytes)": {
        "details": "Entry point for receiving messages or packets from the endpoint.Entry point for receiving msg/packet from the LayerZero endpoint.",
        "params": {
          "_executor": "The address of the executor for the received message.",
          "_extraData": "Additional arbitrary data provided by the corresponding executor.",
          "_guid": "The unique identifier for the received LayerZero message.",
          "_message": "The payload of the received message.",
          "_origin": "The origin information containing the source endpoint and sender address.  - srcEid: The source chain endpoint ID.  - sender: The sender address on the src chain.  - nonce: The nonce of the message."
        }
      },
      "nextNonce(uint32,bytes32)": {
        "details": "_srcEid The source endpoint ID._sender The sender address.The path nonce starts from 1. If 0 is returned it means that there is NO nonce ordered enforcement.Is required by the off-chain executor to determine the OApp expects msg execution is ordered.This is also enforced by the OApp.By default this is NOT enabled. ie. nextNonce is hardcoded to return 0.",
        "returns": {
          "nonce": "The next nonce."
        }
      },
      "oAppVersion()": {
        "returns": {
          "receiverVersion": "The version of the OAppReceiver.sol implementation.",
          "senderVersion": "The version of the OAppSender.sol implementation."
        }
      },
      "owner()": {
        "details": "Returns the address of the current owner."
      },
      "renounceOwnership()": {
        "details": "Leaves the contract without owner. It will not be possible to call `onlyOwner` functions. Can only be called by the current owner. NOTE: Renouncing ownership will leave the contract without an owner, thereby disabling any functionality that is only available to the owner."
      },
      "setDelegate(address)": {
        "details": "Only the owner/admin of the OApp can call this function.Provides the ability for a delegate to set configs, on behalf of the OApp, directly on the Endpoint contract.",
        "params": {
          "_delegate": "The address of the delegate to be set."
        }
      },
      "setPeer(uint32,bytes32)": {
        "details": "Only the owner/admin of the OApp can call this function.Indicates that the peer is trusted to send LayerZero messages to this OApp.Set this to bytes32(0) to remove the peer address.Peer is a bytes32 to accommodate non-evm chains.",
        "params": {
          "_eid": "The endpoint ID.",
          "_peer": "The address of the peer to be associated with the corresponding endpoint."
        }
      },
      "transferOwnership(address)": {
        "details": "Transfers ownership of the contract to a new account (`newOwner`). Can only be called by the current owner."
      }
    },
    "version": 1
  },
  "userdoc": {
    "errors": {
      "RateLimitExceeded()": [
        {
          "notice": "Error that is thrown when an amount exceeds the rate_limit."
        }
      ]
    },
    "events": {
      "RateLimitsChanged((uint32,uint256,uint256)[])": {
        "notice": "Emitted when _setRateLimits occurs."
      }
    },
    "kind": "user",
    "methods": {
      "allowInitializePath((uint32,bytes32,uint64))": {
        "notice": "Checks if the path initialization is allowed based on the provided origin."
      },
      "endpoint()": {
        "notice": "Retrieves the LayerZero endpoint associated with the OApp."
      },
      "getAmountCanBeSent(uint32)": {
        "notice": "Get the current amount that can be sent to this destination endpoint id for the given rate limit window."
      },
      "isComposeMsgSender((uint32,bytes32,uint64),bytes,address)": {
        "notice": "Indicates whether an address is an approved composeMsg sender to the Endpoint."
      },
      "nextNonce(uint32,bytes32)": {
        "notice": "Retrieves the next nonce for a given source endpoint and sender address."
      },
      "oAppVersion()": {
        "notice": "Retrieves the OApp version information."
      },
      "peers(uint32)": {
        "notice": "Retrieves the peer (OApp) associated with a corresponding endpoint."
      },
      "setDelegate(address)": {
        "notice": "Sets the delegate address for the OApp."
      },
      "setPeer(uint32,bytes32)": {
        "notice": "Sets the peer address (OApp instance) for a corresponding endpoint."
      }
    },
    "version": 1
  },
  "storageLayout": {
    "storage": [
      {
        "astId": 1579,
        "contract": "contracts/MultiChainMessenger.sol:MultiChainMessenger",
        "label": "_owner",
        "offset": 0,
        "slot": "0",
        "type": "t_address"
      },
      {
        "astId": 785,
        "contract": "contracts/MultiChainMessenger.sol:MultiChainMessenger",
        "label": "peers",
        "offset": 0,
        "slot": "1",
        "type": "t_mapping(t_uint32,t_bytes32)"
      },
      {
        "astId": 1345,
        "contract": "contracts/MultiChainMessenger.sol:MultiChainMessenger",
        "label": "rateLimits",
        "offset": 0,
        "slot": "2",
        "type": "t_mapping(t_uint32,t_struct(RateLimit)1331_storage)"
      },
      {
        "astId": 2439,
        "contract": "contracts/MultiChainMessenger.sol:MultiChainMessenger",
        "label": "receivedNonces",
        "offset": 0,
        "slot": "3",
        "type": "t_mapping(t_uint32,t_uint64)"
      },
      {
        "astId": 2444,
        "contract": "contracts/MultiChainMessenger.sol:MultiChainMessenger",
        "label": "_locked",
        "offset": 0,
        "slot": "4",
        "type": "t_bool"
      }
    ],
    "types": {
      "t_address": {
        "encoding": "inplace",
        "label": "address",
        "numberOfBytes": "20"
      },
      "t_bool": {
        "encoding": "inplace",
        "label": "bool",
        "numberOfBytes": "1"
      },
      "t_bytes32": {
        "encoding": "inplace",
        "label": "bytes32",
        "numberOfBytes": "32"
      },
      "t_mapping(t_uint32,t_bytes32)": {
        "encoding": "mapping",
        "key": "t_uint32",
        "label": "mapping(uint32 => bytes32)",
        "numberOfBytes": "32",
        "value": "t_bytes32"
      },
      "t_mapping(t_uint32,t_struct(RateLimit)1331_storage)": {
        "encoding": "mapping",
        "key": "t_uint32",
        "label": "mapping(uint32 => struct RateLimiter.RateLimit)",
        "numberOfBytes": "32",
        "value": "t_struct(RateLimit)1331_storage"
      },
      "t_mapping(t_uint32,t_uint64)": {
        "encoding": "mapping",
        "key": "t_uint32",
        "label": "mapping(uint32 => uint64)",
        "numberOfBytes": "32",
        "value": "t_uint64"
      },
      "t_struct(RateLimit)1331_storage": {
        "encoding": "inplace",
        "label": "struct RateLimiter.RateLimit",
        "members": [
          {
            "astId": 1324,
            "contract": "contracts/MultiChainMessenger.sol:MultiChainMessenger",
            "label": "amountInFlight",
            "offset": 0,
            "slot": "0",
            "type": "t_uint256"
          },
          {
            "astId": 1326,
            "contract": "contracts/MultiChainMessenger.sol:MultiChainMessenger",
            "label": "lastUpdated",
            "offset": 0,
            "slot": "1",
            "type": "t_uint256"
          },
          {
            "astId": 1328,
            "contract": "contracts/MultiChainMessenger.sol:MultiChainMessenger",
            "label": "limit",
            "offset": 0,
            "slot": "2",
            "type": "t_uint256"
          },
          {
            "astId": 1330,
            "contract": "contracts/MultiChainMessenger.sol:MultiChainMessenger",
            "label": "window",
            "offset": 0,
            "slot": "3",
            "type": "t_uint256"
          }
        ],
        "numberOfBytes": "128"
      },
      "t_uint256": {
        "encoding": "inplace",
        "label": "uint256",
        "numberOfBytes": "32"
      },
      "t_uint32": {
        "encoding": "inplace",
        "label": "uint32",
        "numberOfBytes": "4"
      },
      "t_uint64": {
        "encoding": "inplace",
        "label": "uint64",
        "numberOfBytes": "8"
      }
    }
  }
}