{
  "address": "0xd361fB0919b6B2AaEC39cDEe3EBA749D67F632A2",
  "abi": [
    {
      "inputs": [
        {
          "internalType": "address",
          "name": "_endpoint",
          "type": "address"
        },
        {
          "internalType": "address",
          "name": "_owner",
          "type": "address"
        },
        {
          "components": [
            {
              "internalType": "uint32",
              "name": "dstEid",
              "type": "uint32"
            },
            {
              "internalType": "uint256",
              "name": "limit",
              "type": "uint256"
            },
            {
              "internalType": "uint256",
              "name": "window",
              "type": "uint256"
            }
          ],
          "internalType": "struct RateLimiter.RateLimitConfig[]",
          "name": "_rateLimitConfigs",
          "type": "tuple[]"
        }
      ],
      "stateMutability": "nonpayable",
      "type": "constructor"
    },
    {
      "inputs": [
        {
          "internalType": "address",
          "name": "target",
          "type": "address"
        }
      ],
      "name": "AddressEmptyCode",
      "type": "error"
    },
    {
      "inputs": [
        {
          "internalType": "address",
          "name": "account",
          "type": "address"
        }
      ],
      "name": "AddressInsufficientBalance",
      "type": "error"
    },
    {
      "inputs": [],
      "name": "FailedInnerCall",
      "type": "error"
    },
    {
      "inputs": [],
      "name": "InvalidDelegate",
      "type": "error"
    },
    {
      "inputs": [],
      "name": "InvalidEndpointCall",
      "type": "error"
    },
    {
      "inputs": [
        {
          "internalType": "bytes",
          "name": "options",
          "type": "bytes"
        }
      ],
      "name": "InvalidOptions",
      "type": "error"
    },
    {
      "inputs": [],
      "name": "LzTokenUnavailable",
      "type": "error"
    },
    {
      "inputs": [
        {
          "internalType": "uint32",
          "name": "eid",
          "type": "uint32"
        }
      ],
      "name": "NoPeer",
      "type": "error"
    },
    {
      "inputs": [
        {
          "internalType": "uint256",
          "name": "msgValue",
          "type": "uint256"
        }
      ],
      "name": "NotEnoughNative",
      "type": "error"
    },
    {
      "inputs": [
        {
          "internalType": "address",
          "name": "addr",
          "type": "address"
        }
      ],
      "name": "OnlyEndpoint",
      "type": "error"
    },
    {
      "inputs": [
        {
          "internalType": "uint32",
          "name": "eid",
          "type": "uint32"
        },
        {
          "internalType": "bytes32",
          "name": "sender",
          "type": "bytes32"
        }
      ],
      "name": "OnlyPeer",
      "type": "error"
    },
    {
      "inputs": [
        {
          "internalType": "address",
          "name": "owner",
          "type": "address"
        }
      ],
      "name": "OwnableInvalidOwner",
      "type": "error"
    },
    {
      "inputs": [
        {
          "internalType": "address",
          "name": "account",
          "type": "address"
        }
      ],
      "name": "OwnableUnauthorizedAccount",
      "type": "error"
    },
    {
      "inputs": [],
      "name": "RateLimitExceeded",
      "type": "error"
    },
    {
      "inputs": [
        {
          "internalType": "address",
          "name": "token",
          "type": "address"
        }
      ],
      "name": "SafeERC20FailedOperation",
      "type": "error"
    },
    {
      "anonymous": false,
      "inputs": [
        {
          "components": [
            {
              "internalType": "uint32",
              "name": "eid",
              "type": "uint32"
            },
            {
              "internalType": "uint16",
              "name": "msgType",
              "type": "uint16"
            },
            {
              "internalType": "bytes",
              "name": "options",
              "type": "bytes"
            }
          ],
          "indexed": false,
          "internalType": "struct EnforcedOptionParam[]",
          "name": "_enforcedOptions",
          "type": "tuple[]"
        }
      ],
      "name": "EnforcedOptionSet",
      "type": "event"
    },
    {
      "anonymous": false,
      "inputs": [
        {
          "indexed": true,
          "internalType": "uint32",
          "name": "srcEid",
          "type": "uint32"
        },
        {
          "indexed": false,
          "internalType": "string",
          "name": "sender",
          "type": "string"
        },
        {
          "indexed": false,
          "internalType": "string",
          "name": "data",
          "type": "string"
        },
        {
          "indexed": false,
          "internalType": "string",
          "name": "key",
          "type": "string"
        }
      ],
      "name": "MessageReceived",
      "type": "event"
    },
    {
      "anonymous": false,
      "inputs": [
        {
          "indexed": true,
          "internalType": "uint32",
          "name": "dstEid",
          "type": "uint32"
        },
        {
          "indexed": false,
          "internalType": "string",
          "name": "sender",
          "type": "string"
        },
        {
          "indexed": false,
          "internalType": "string",
          "name": "data",
          "type": "string"
        },
        {
          "indexed": false,
          "internalType": "string",
          "name": "key",
          "type": "string"
        }
      ],
      "name": "MessageSent",
      "type": "event"
    },
    {
      "anonymous": false,
      "inputs": [
        {
          "indexed": true,
          "internalType": "address",
          "name": "previousOwner",
          "type": "address"
        },
        {
          "indexed": true,
          "internalType": "address",
          "name": "newOwner",
          "type": "address"
        }
      ],
      "name": "OwnershipTransferred",
      "type": "event"
    },
    {
      "anonymous": false,
      "inputs": [
        {
          "indexed": false,
          "internalType": "uint32",
          "name": "eid",
          "type": "uint32"
        },
        {
          "indexed": false,
          "internalType": "bytes32",
          "name": "peer",
          "type": "bytes32"
        }
      ],
      "name": "PeerSet",
      "type": "event"
    },
    {
      "anonymous": false,
      "inputs": [
        {
          "components": [
            {
              "internalType": "uint32",
              "name": "dstEid",
              "type": "uint32"
            },
            {
              "internalType": "uint256",
              "name": "limit",
              "type": "uint256"
            },
            {
              "internalType": "uint256",
              "name": "window",
              "type": "uint256"
            }
          ],
          "indexed": false,
          "internalType": "struct RateLimiter.RateLimitConfig[]",
          "name": "rateLimitConfigs",
          "type": "tuple[]"
        }
      ],
      "name": "RateLimitsChanged",
      "type": "event"
    },
    {
      "inputs": [],
      "name": "SEND_MESSAGE",
      "outputs": [
        {
          "internalType": "uint16",
          "name": "",
          "type": "uint16"
        }
      ],
      "stateMutability": "view",
      "type": "function"
    },
    {
      "inputs": [
        {
          "components": [
            {
              "internalType": "uint32",
              "name": "srcEid",
              "type": "uint32"
            },
            {
              "internalType": "bytes32",
              "name": "sender",
              "type": "bytes32"
            },
            {
              "internalType": "uint64",
              "name": "nonce",
              "type": "uint64"
            }
          ],
          "internalType": "struct Origin",
          "name": "origin",
          "type": "tuple"
        }
      ],
      "name": "allowInitializePath",
      "outputs": [
        {
          "internalType": "bool",
          "name": "",
          "type": "bool"
        }
      ],
      "stateMutability": "view",
      "type": "function"
    },
    {
      "inputs": [
        {
          "internalType": "uint32",
          "name": "_eid",
          "type": "uint32"
        },
        {
          "internalType": "uint16",
          "name": "_msgType",
          "type": "uint16"
        },
        {
          "internalType": "bytes",
          "name": "_extraOptions",
          "type": "bytes"
        }
      ],
      "name": "combineOptions",
      "outputs": [
        {
          "internalType": "bytes",
          "name": "",
          "type": "bytes"
        }
      ],
      "stateMutability": "view",
      "type": "function"
    },
    {
      "inputs": [],
      "name": "endpoint",
      "outputs": [
        {
          "internalType": "contract ILayerZeroEndpointV2",
          "name": "",
          "type": "address"
        }
      ],
      "stateMutability": "view",
      "type": "function"
    },
    {
      "inputs": [
        {
          "internalType": "uint32",
          "name": "eid",
          "type": "uint32"
        },
        {
          "internalType": "uint16",
          "name": "msgType",
          "type": "uint16"
        }
      ],
      "name": "enforcedOptions",
      "outputs": [
        {
          "internalType": "bytes",
          "name": "enforcedOption",
          "type": "bytes"
        }
      ],
      "stateMutability": "view",
      "type": "function"
    },
    {
      "inputs": [
        {
          "internalType": "uint32",
          "name": "_dstEid",
          "type": "uint32"
        }
      ],
      "name": "getAmountCanBeSent",
      "outputs": [
        {
          "internalType": "uint256",
          "name": "currentAmountInFlight",
          "type": "uint256"
        },
        {
          "internalType": "uint256",
          "name": "amountCanBeSent",
          "type": "uint256"
        }
      ],
      "stateMutability": "view",
      "type": "function"
    },
    {
      "inputs": [
        {
          "components": [
            {
              "internalType": "uint32",
              "name": "srcEid",
              "type": "uint32"
            },
            {
              "internalType": "bytes32",
              "name": "sender",
              "type": "bytes32"
            },
            {
              "internalType": "uint64",
              "name": "nonce",
              "type": "uint64"
            }
          ],
          "internalType": "struct Origin",
          "name": "",
          "type": "tuple"
        },
        {
          "internalType": "bytes",
          "name": "",
          "type": "bytes"
        },
        {
          "internalType": "address",
          "name": "_sender",
          "type": "address"
        }
      ],
      "name": "isComposeMsgSender",
      "outputs": [
        {
          "internalType": "bool",
          "name": "",
          "type": "bool"
        }
      ],
      "stateMutability": "view",
      "type": "function"
    },
    {
      "inputs": [
        {
          "components": [
            {
              "internalType": "uint32",
              "name": "srcEid",
              "type": "uint32"
            },
            {
              "internalType": "bytes32",
              "name": "sender",
              "type": "bytes32"
            },
            {
              "internalType": "uint64",
              "name": "nonce",
              "type": "uint64"
            }
          ],
          "internalType": "struct Origin",
          "name": "_origin",
          "type": "tuple"
        },
        {
          "internalType": "bytes32",
          "name": "_guid",
          "type": "bytes32"
        },
        {
          "internalType": "bytes",
          "name": "_message",
          "type": "bytes"
        },
        {
          "internalType": "address",
          "name": "_executor",
          "type": "address"
        },
        {
          "internalType": "bytes",
          "name": "_extraData",
          "type": "bytes"
        }
      ],
      "name": "lzReceive",
      "outputs": [],
      "stateMutability": "payable",
      "type": "function"
    },
    {
      "inputs": [
        {
          "internalType": "uint32",
          "name": "",
          "type": "uint32"
        },
        {
          "internalType": "bytes32",
          "name": "",
          "type": "bytes32"
        }
      ],
      "name": "nextNonce",
      "outputs": [
        {
          "internalType": "uint64",
          "name": "nonce",
          "type": "uint64"
        }
      ],
      "stateMutability": "view",
      "type": "function"
    },
    {
      "inputs": [],
      "name": "oAppVersion",
      "outputs": [
        {
          "internalType": "uint64",
          "name": "senderVersion",
          "type": "uint64"
        },
        {
          "internalType": "uint64",
          "name": "receiverVersion",
          "type": "uint64"
        }
      ],
      "stateMutability": "pure",
      "type": "function"
    },
    {
      "inputs": [],
      "name": "owner",
      "outputs": [
        {
          "internalType": "address",
          "name": "",
          "type": "address"
        }
      ],
      "stateMutability": "view",
      "type": "function"
    },
    {
      "inputs": [
        {
          "internalType": "uint32",
          "name": "eid",
          "type": "uint32"
        }
      ],
      "name": "peers",
      "outputs": [
        {
          "internalType": "bytes32",
          "name": "peer",
          "type": "bytes32"
        }
      ],
      "stateMutability": "view",
      "type": "function"
    },
    {
      "inputs": [
        {
          "internalType": "uint32",
          "name": "_dstEid",
          "type": "uint32"
        },
        {
          "internalType": "string",
          "name": "sender",
          "type": "string"
        },
        {
          "internalType": "string",
          "name": "data",
          "type": "string"
        },
        {
          "internalType": "string",
          "name": "key",
          "type": "string"
        },
        {
          "internalType": "bytes",
          "name": "_options",
          "type": "bytes"
        }
      ],
      "name": "quote",
      "outputs": [
        {
          "components": [
            {
              "internalType": "uint256",
              "name": "nativeFee",
              "type": "uint256"
            },
            {
              "internalType": "uint256",
              "name": "lzTokenFee",
              "type": "uint256"
            }
          ],
          "internalType": "struct MessagingFee",
          "name": "fee",
          "type": "tuple"
        }
      ],
      "stateMutability": "view",
      "type": "function"
    },
    {
      "inputs": [
        {
          "internalType": "uint32",
          "name": "dstEid",
          "type": "uint32"
        }
      ],
      "name": "rateLimits",
      "outputs": [
        {
          "internalType": "uint256",
          "name": "amountInFlight",
          "type": "uint256"
        },
        {
          "internalType": "uint256",
          "name": "lastUpdated",
          "type": "uint256"
        },
        {
          "internalType": "uint256",
          "name": "limit",
          "type": "uint256"
        },
        {
          "internalType": "uint256",
          "name": "window",
          "type": "uint256"
        }
      ],
      "stateMutability": "view",
      "type": "function"
    },
    {
      "inputs": [],
      "name": "renounceOwnership",
      "outputs": [],
      "stateMutability": "nonpayable",
      "type": "function"
    },
    {
      "inputs": [
        {
          "internalType": "uint32[]",
          "name": "dstEids",
          "type": "uint32[]"
        },
        {
          "internalType": "string",
          "name": "sender",
          "type": "string"
        },
        {
          "internalType": "string",
          "name": "data",
          "type": "string"
        },
        {
          "internalType": "string",
          "name": "key",
          "type": "string"
        },
        {
          "internalType": "bytes",
          "name": "_options",
          "type": "bytes"
        }
      ],
      "name": "sendMessage",
      "outputs": [],
      "stateMutability": "payable",
      "type": "function"
    },
    {
      "inputs": [
        {
          "internalType": "address",
          "name": "_delegate",
          "type": "address"
        }
      ],
      "name": "setDelegate",
      "outputs": [],
      "stateMutability": "nonpayable",
      "type": "function"
    },
    {
      "inputs": [
        {
          "components": [
            {
              "internalType": "uint32",
              "name": "eid",
              "type": "uint32"
            },
            {
              "internalType": "uint16",
              "name": "msgType",
              "type": "uint16"
            },
            {
              "internalType": "bytes",
              "name": "options",
              "type": "bytes"
            }
          ],
          "internalType": "struct EnforcedOptionParam[]",
          "name": "_enforcedOptions",
          "type": "tuple[]"
        }
      ],
      "name": "setEnforcedOptions",
      "outputs": [],
      "stateMutability": "nonpayable",
      "type": "function"
    },
    {
      "inputs": [
        {
          "internalType": "uint32",
          "name": "_eid",
          "type": "uint32"
        },
        {
          "internalType": "bytes32",
          "name": "_peer",
          "type": "bytes32"
        }
      ],
      "name": "setPeer",
      "outputs": [],
      "stateMutability": "nonpayable",
      "type": "function"
    },
    {
      "inputs": [
        {
          "components": [
            {
              "internalType": "uint32",
              "name": "dstEid",
              "type": "uint32"
            },
            {
              "internalType": "uint256",
              "name": "limit",
              "type": "uint256"
            },
            {
              "internalType": "uint256",
              "name": "window",
              "type": "uint256"
            }
          ],
          "internalType": "struct RateLimiter.RateLimitConfig[]",
          "name": "_rateLimitConfigs",
          "type": "tuple[]"
        }
      ],
      "name": "setRateLimits",
      "outputs": [],
      "stateMutability": "nonpayable",
      "type": "function"
    },
    {
      "inputs": [
        {
          "internalType": "address",
          "name": "newOwner",
          "type": "address"
        }
      ],
      "name": "transferOwnership",
      "outputs": [],
      "stateMutability": "nonpayable",
      "type": "function"
    },
    {
      "inputs": [],
      "name": "withdraw",
      "outputs": [],
      "stateMutability": "nonpayable",
      "type": "function"
    }
  ],
  "transactionHash": "0xf7b2ad37453735004123e92518d2dadf31a78edd462bbaa6c163c9f721cd0e27",
  "args": [
    "0x6EDCE65403992e310A62460808c4b910D972f10f",
    "0xF54ab80D517f96d9f5E4Aa4303be13CDE071E8aF",
    [
      {
        "dstEid": 1,
        "limit": 1000,
        "window": 3600
      }
    ]
  ],
  "numDeployments": 2,
  "solcInputHash": "51bd90056ed0a28986ca13e23a0f9628",
  "bytecode": "0x60a06040523480156200001157600080fd5b5060405162002cf138038062002cf1833981016040819052620000349162000428565b82828181806001600160a01b0381166200006857604051631e4fbdf760e01b81526000600482015260240160405180910390fd5b620000738162000121565b506001600160a01b038083166080528116620000a257604051632d618d8160e21b815260040160405180910390fd5b60805160405163ca5eb5e160e01b81526001600160a01b0383811660048301529091169063ca5eb5e190602401600060405180830381600087803b158015620000ea57600080fd5b505af1158015620000ff573d6000803e3d6000fd5b505050505050505062000118816200017160201b60201c565b50505062000643565b600080546001600160a01b038381166001600160a01b0319831681178455604051919092169283917f8be0079c531659141344cd1fd0a4f28419497f9722a3daafe3b4186f6b6457e09190a35050565b60005b8151811015620002505760006002600084848151811062000199576200019962000547565b60200260200101516000015163ffffffff1663ffffffff1681526020019081526020016000209050620001f4838381518110620001da57620001da62000547565b60200260200101516000015160006200028d60201b60201c565b82828151811062000209576200020962000547565b602002602001015160200151816002018190555082828151811062000232576200023262000547565b60209081029190910101516040015160039091015560010162000174565b507fe888347665897e637801f36c5129f510657276178c89022bc5fa0246dbc19de1816040516200028291906200055d565b60405180910390a150565b63ffffffff821660009081526002602081905260408220805460018201549282015460038301549294938493620002c693929062000307565b9150915080841115620002ec5760405163a74c1c5f60e01b815260040160405180910390fd5b620002f88483620005d4565b83555050426001909101555050565b60008080620003178642620005f0565b90508381106200032e57600092508491506200038d565b6000846200033d838862000606565b62000349919062000620565b9050808811156200036657620003608189620005f0565b62000369565b60005b9350838611156200038657620003808487620005f0565b62000389565b60005b9250505b5094509492505050565b80516001600160a01b0381168114620003af57600080fd5b919050565b634e487b7160e01b600052604160045260246000fd5b604051606081016001600160401b0381118282101715620003ef57620003ef620003b4565b60405290565b604051601f8201601f191681016001600160401b0381118282101715620004205762000420620003b4565b604052919050565b600080600060608085870312156200043f57600080fd5b6200044a8562000397565b935060206200045b81870162000397565b604087810151919550906001600160401b03808211156200047b57600080fd5b818901915089601f8301126200049057600080fd5b815181811115620004a557620004a5620003b4565b620004b5858260051b01620003f5565b8181528581019250606090910283018501908b821115620004d557600080fd5b928501925b81841015620005365786848d031215620004f45760008081fd5b620004fe620003ca565b845163ffffffff81168114620005145760008081fd5b81528487015187820152858501518682015283529286019291850191620004da565b809750505050505050509250925092565b634e487b7160e01b600052603260045260246000fd5b602080825282518282018190526000919060409081850190868401855b82811015620005b1578151805163ffffffff168552868101518786015285015185850152606090930192908501906001016200057a565b5091979650505050505050565b634e487b7160e01b600052601160045260246000fd5b80820180821115620005ea57620005ea620005be565b92915050565b81810381811115620005ea57620005ea620005be565b8082028115828204841417620005ea57620005ea620005be565b6000826200063e57634e487b7160e01b600052601260045260246000fd5b500490565b608051612668620006896000396000818161026d015281816104cb015281816109bb01528181611049015281816114c3015281816115bd015261167401526126686000f3fe6080604052600436106101355760003560e01c806382413eac116100ab578063bc70b3541161006f578063bc70b35414610401578063c272198d14610421578063ca5eb5e114610456578063ed619da714610476578063f2fde38b14610489578063ff7bd03d146104a957600080fd5b806382413eac146102f45780638da5cb5b14610324578063ab99095d14610342578063b98bd070146103a6578063bb0b6a53146103c657600080fd5b806346f943e9116100fd57806346f943e9146101e65780635532d645146102065780635535d4611461022e5780635e280f111461025b578063715018a6146102a75780637d25a05e146102bc57600080fd5b806313137d651461013a57806317442b701461014f5780633400288b1461017657806334df8d6f146101965780633ccfd60b146101d1575b600080fd5b61014d61014836600461194c565b6104c9565b005b34801561015b57600080fd5b50604080516001815260026020820152015b60405180910390f35b34801561018257600080fd5b5061014d610191366004611a04565b610589565b3480156101a257600080fd5b506101b66101b1366004611b0b565b61059f565b6040805182518152602092830151928101929092520161016d565b3480156101dd57600080fd5b5061014d6105f3565b3480156101f257600080fd5b5061014d610201366004611bc8565b610638565b34801561021257600080fd5b5061021b600181565b60405161ffff909116815260200161016d565b34801561023a57600080fd5b5061024e610249366004611c4e565b61069b565b60405161016d9190611cd1565b34801561026757600080fd5b5061028f7f000000000000000000000000000000000000000000000000000000000000000081565b6040516001600160a01b03909116815260200161016d565b3480156102b357600080fd5b5061014d610740565b3480156102c857600080fd5b506102dc6102d7366004611a04565b610754565b6040516001600160401b03909116815260200161016d565b34801561030057600080fd5b5061031461030f366004611ce4565b61075d565b604051901515815260200161016d565b34801561033057600080fd5b506000546001600160a01b031661028f565b34801561034e57600080fd5b5061038661035d366004611d4a565b600260208190526000918252604090912080546001820154928201546003909201549092919084565b60408051948552602085019390935291830152606082015260800161016d565b3480156103b257600080fd5b5061014d6103c1366004611da9565b610772565b3480156103d257600080fd5b506103f36103e1366004611d4a565b60016020526000908152604090205481565b60405190815260200161016d565b34801561040d57600080fd5b5061024e61041c366004611dea565b61078c565b34801561042d57600080fd5b5061044161043c366004611d4a565b610934565b6040805192835260208301919091520161016d565b34801561046257600080fd5b5061014d610471366004611e4a565b610994565b61014d610484366004611e67565b610a1a565b34801561049557600080fd5b5061014d6104a4366004611e4a565b610daa565b3480156104b557600080fd5b506103146104c4366004611f24565b610de5565b7f00000000000000000000000000000000000000000000000000000000000000006001600160a01b03163314610519576040516391ac5e4f60e01b81523360048201526024015b60405180910390fd5b602087018035906105339061052e908a611d4a565b610e1b565b14610571576105456020880188611d4a565b60405163309afaf360e21b815263ffffffff909116600482015260208801356024820152604401610510565b61058087878787878787610e57565b50505050505050565b610591610fb1565b61059b8282610fde565b5050565b604080518082019091526000808252602082015260008585856040516020016105ca93929190611f40565b60405160208183030381529060405290506105e88782856000611033565b979650505050505050565b6105fb610fb1565b600080546040516001600160a01b03909116914780156108fc02929091818181858888f19350505050158015610635573d6000803e3d6000fd5b50565b610640610fb1565b61059b8282808060200260200160405190810160405280939291908181526020016000905b828210156106915761068260608302860136819003810190611f79565b81526020019060010190610665565b5050505050611114565b6003602090815260009283526040808420909152908252902080546106bf90611fbc565b80601f01602080910402602001604051908101604052809291908181526020018280546106eb90611fbc565b80156107385780601f1061070d57610100808354040283529160200191610738565b820191906000526020600020905b81548152906001019060200180831161071b57829003601f168201915b505050505081565b610748610fb1565b6107526000611218565b565b60005b92915050565b6001600160a01b03811630145b949350505050565b61077a610fb1565b61059b6107878284611ff0565b611268565b63ffffffff8416600090815260036020908152604080832061ffff871684529091528120805460609291906107c090611fbc565b80601f01602080910402602001604051908101604052809291908181526020018280546107ec90611fbc565b80156108395780601f1061080e57610100808354040283529160200191610839565b820191906000526020600020905b81548152906001019060200180831161081c57829003601f168201915b5050505050905080516000036108895783838080601f01602080910402602001604051908101604052809392919081815260200183838082843760009201919091525092945061076a9350505050565b600083900361089957905061076a565b60028310610917576108e084848080601f01602080910402602001604051908101604052809392919081815260200183838082843760009201919091525061136f92505050565b806108ee84600281886120c5565b604051602001610900939291906120ef565b60405160208183030381529060405291505061076a565b8383604051639a6d49cd60e01b8152600401610510929190612117565b63ffffffff8116600090815260026020818152604080842081516080810183528154808252600183015494820185905294820154928101839052600390910154606082018190528594919361098a93909161139b565b9250925050915091565b61099c610fb1565b60405163ca5eb5e160e01b81526001600160a01b0382811660048301527f0000000000000000000000000000000000000000000000000000000000000000169063ca5eb5e190602401600060405180830381600087803b1580156109ff57600080fd5b505af1158015610a13573d6000803e3d6000fd5b5050505050565b60055460ff1615610a5e5760405162461bcd60e51b815260206004820152600e60248201526d1499595b9d1c985b9d0818d85b1b60921b6044820152606401610510565b6005805460ff191660011790558451610ab25760405162461bcd60e51b815260206004820152601660248201527553656e6465722063616e6e6f7420626520656d70747960501b6044820152606401610510565b6000845111610afa5760405162461bcd60e51b8152602060048201526014602482015273446174612063616e6e6f7420626520656d70747960601b6044820152606401610510565b6000835111610b415760405162461bcd60e51b81526020600482015260136024820152724b65792063616e6e6f7420626520656d70747960681b6044820152606401610510565b6000858585604051602001610b5893929190611f40565b60405160208183030381529060405290506000805b88811015610d1157610ba68a8a83818110610b8a57610b8a612146565b9050602002016020810190610b9f9190611d4a565b600161141b565b6000610c0f8b8b84818110610bbd57610bbd612146565b9050602002016020810190610bd29190611d4a565b8588888080601f01602080910402602001604051908101604052809392919081815260200183838082843760009201829052509250611033915050565b8051909150610c1e9084612172565b9250610c9f8b8b84818110610c3557610c35612146565b9050602002016020810190610c4a9190611d4a565b8588888080601f01602080910402602001604051908101604052809392919081815260200183838082843760009201829052506040805180820190915289518152602081019190915292503391506114909050565b508a8a83818110610cb257610cb2612146565b9050602002016020810190610cc79190611d4a565b63ffffffff167fc7038e6fe58091dcb1c0df6cb33f9e52f657b70ca86f51bdc4a4f1669d63b18f8a8a8a604051610d0093929190611f40565b60405180910390a250600101610b6d565b5080341015610d555760405162461bcd60e51b815260206004820152601060248201526f496e73756666696369656e742066656560801b6044820152606401610510565b80341115610d9557336108fc610d6b8334612185565b6040518115909202916000818181858888f19350505050158015610d93573d6000803e3d6000fd5b505b50506005805460ff1916905550505050505050565b610db2610fb1565b6001600160a01b038116610ddc57604051631e4fbdf760e01b815260006004820152602401610510565b61063581611218565b6000602082018035906001908390610dfd9086611d4a565b63ffffffff1681526020810191909152604001600020541492915050565b63ffffffff8116600090815260016020526040812054806107575760405163f6ff4fb760e01b815263ffffffff84166004820152602401610510565b6000610e696060890160408a016121ad565b905060046000610e7c60208b018b611d4a565b63ffffffff168152602081019190915260400160002054610ea7906001600160401b031660016121ca565b6001600160401b0316816001600160401b031614610ef75760405162461bcd60e51b815260206004820152600d60248201526c496e76616c6964206e6f6e636560981b6044820152606401610510565b8060046000610f0960208c018c611d4a565b63ffffffff16815260208101919091526040016000908120805467ffffffffffffffff19166001600160401b0393909316929092179091558080610f4f8989018a6121f1565b91945092509050610f6360208c018c611d4a565b63ffffffff167f9507536125af879f7b5c57b2e38d28b900fe1676221d6b6a934ae5c4d920c0d3848484604051610f9c93929190611f40565b60405180910390a25050505050505050505050565b6000546001600160a01b031633146107525760405163118cdaa760e01b8152336004820152602401610510565b63ffffffff8216600081815260016020908152604091829020849055815192835282018390527f238399d427b947898edb290f5ff0f9109849b1c3ba196a42e35f00c50a54b98b910160405180910390a15050565b60408051808201909152600080825260208201527f00000000000000000000000000000000000000000000000000000000000000006001600160a01b031663ddc28c586040518060a001604052808863ffffffff16815260200161109689610e1b565b8152602001878152602001868152602001851515815250306040518363ffffffff1660e01b81526004016110cb929190612278565b6040805180830381865afa1580156110e7573d6000803e3d6000fd5b505050506040513d601f19601f8201168201806040525081019061110b919061233f565b95945050505050565b60005b81518110156111dd5760006002600084848151811061113857611138612146565b60200260200101516000015163ffffffff1663ffffffff168152602001908152602001600020905061118883838151811061117557611175612146565b602002602001015160000151600061141b565b82828151811061119a5761119a612146565b60200260200101516020015181600201819055508282815181106111c0576111c0612146565b602090810291909101015160400151600390910155600101611117565b507fe888347665897e637801f36c5129f510657276178c89022bc5fa0246dbc19de18160405161120d919061235b565b60405180910390a150565b600080546001600160a01b038381166001600160a01b0319831681178455604051919092169283917f8be0079c531659141344cd1fd0a4f28419497f9722a3daafe3b4186f6b6457e09190a35050565b60005b815181101561133f5761129a82828151811061128957611289612146565b60200260200101516040015161136f565b8181815181106112ac576112ac612146565b602002602001015160400151600360008484815181106112ce576112ce612146565b60200260200101516000015163ffffffff1663ffffffff168152602001908152602001600020600084848151811061130857611308612146565b60200260200101516020015161ffff1661ffff1681526020019081526020016000209081611336919061240a565b5060010161126b565b507fbe4864a8e820971c0247f5992e2da559595f7bf076a21cb5928d443d2a13b6748160405161120d91906124c9565b600281015161ffff811660031461059b5781604051639a6d49cd60e01b81526004016105109190611cd1565b600080806113a98642612185565b90508381106113be5760009250849150611411565b6000846113cb8388612554565b6113d5919061256b565b9050808811156113ee576113e98189612185565b6113f1565b60005b93508386111561140a576114058487612185565b61140d565b60005b9250505b5094509492505050565b63ffffffff82166000908152600260208190526040822080546001820154928201546003830154929493849361145293929061139b565b91509150808411156114775760405163a74c1c5f60e01b815260040160405180910390fd5b6114818483612172565b83555050426001909101555050565b611498611890565b60006114a78460000151611590565b6020850151909150156114c1576114c184602001516115b9565b7f00000000000000000000000000000000000000000000000000000000000000006001600160a01b0316632637a450826040518060a001604052808b63ffffffff1681526020016115118c610e1b565b81526020018a815260200189815260200160008960200151111515815250866040518463ffffffff1660e01b815260040161154d929190612278565b60806040518083038185885af115801561156b573d6000803e3d6000fd5b50505050506040513d601f19601f820116820180604052508101906105e8919061258d565b6000813410156115b5576040516304fb820960e51b8152346004820152602401610510565b5090565b60007f00000000000000000000000000000000000000000000000000000000000000006001600160a01b031663e4fe1d946040518163ffffffff1660e01b8152600401602060405180830381865afa158015611619573d6000803e3d6000fd5b505050506040513d601f19601f8201168201806040525081019061163d91906125d7565b90506001600160a01b038116611666576040516329b99a9560e11b815260040160405180910390fd5b6040805133602482018190527f00000000000000000000000000000000000000000000000000000000000000006001600160a01b03818116604485015260648085018890528551808603909101815260849094019094526020830180516001600160e01b03166323b872dd60e01b17905261059b9385169286906116eb9085906116f1565b50505050565b60006117066001600160a01b03841683611759565b9050805160001415801561172b57508080602001905181019061172991906125f4565b155b1561175457604051635274afe760e01b81526001600160a01b0384166004820152602401610510565b505050565b60606117678383600061176e565b9392505050565b6060814710156117935760405163cd78605960e01b8152306004820152602401610510565b600080856001600160a01b031684866040516117af9190612616565b60006040518083038185875af1925050503d80600081146117ec576040519150601f19603f3d011682016040523d82523d6000602084013e6117f1565b606091505b509150915061180186838361180b565b9695505050505050565b6060826118205761181b82611867565b611767565b815115801561183757506001600160a01b0384163b155b1561186057604051639996b31560e01b81526001600160a01b0385166004820152602401610510565b5080611767565b8051156118775780518082602001fd5b604051630a12f52160e11b815260040160405180910390fd5b60405180606001604052806000801916815260200160006001600160401b031681526020016118d2604051806040016040528060008152602001600081525090565b905290565b6000606082840312156118e957600080fd5b50919050565b60008083601f84011261190157600080fd5b5081356001600160401b0381111561191857600080fd5b60208301915083602082850101111561193057600080fd5b9250929050565b6001600160a01b038116811461063557600080fd5b600080600080600080600060e0888a03121561196757600080fd5b61197189896118d7565b96506060880135955060808801356001600160401b038082111561199457600080fd5b6119a08b838c016118ef565b909750955060a08a013591506119b582611937565b90935060c089013590808211156119cb57600080fd5b506119d88a828b016118ef565b989b979a50959850939692959293505050565b803563ffffffff811681146119ff57600080fd5b919050565b60008060408385031215611a1757600080fd5b611a20836119eb565b946020939093013593505050565b634e487b7160e01b600052604160045260246000fd5b604051606081016001600160401b0381118282101715611a6657611a66611a2e565b60405290565b604051601f8201601f191681016001600160401b0381118282101715611a9457611a94611a2e565b604052919050565b600082601f830112611aad57600080fd5b81356001600160401b03811115611ac657611ac6611a2e565b611ad9601f8201601f1916602001611a6c565b818152846020838601011115611aee57600080fd5b816020850160208301376000918101602001919091529392505050565b600080600080600060a08688031215611b2357600080fd5b611b2c866119eb565b945060208601356001600160401b0380821115611b4857600080fd5b611b5489838a01611a9c565b95506040880135915080821115611b6a57600080fd5b611b7689838a01611a9c565b94506060880135915080821115611b8c57600080fd5b611b9889838a01611a9c565b93506080880135915080821115611bae57600080fd5b50611bbb88828901611a9c565b9150509295509295909350565b60008060208385031215611bdb57600080fd5b82356001600160401b0380821115611bf257600080fd5b818501915085601f830112611c0657600080fd5b813581811115611c1557600080fd5b866020606083028501011115611c2a57600080fd5b60209290920196919550909350505050565b803561ffff811681146119ff57600080fd5b60008060408385031215611c6157600080fd5b611c6a836119eb565b9150611c7860208401611c3c565b90509250929050565b60005b83811015611c9c578181015183820152602001611c84565b50506000910152565b60008151808452611cbd816020860160208601611c81565b601f01601f19169290920160200192915050565b6020815260006117676020830184611ca5565b60008060008060a08587031215611cfa57600080fd5b611d0486866118d7565b935060608501356001600160401b03811115611d1f57600080fd5b611d2b878288016118ef565b9094509250506080850135611d3f81611937565b939692955090935050565b600060208284031215611d5c57600080fd5b611767826119eb565b60008083601f840112611d7757600080fd5b5081356001600160401b03811115611d8e57600080fd5b6020830191508360208260051b850101111561193057600080fd5b60008060208385031215611dbc57600080fd5b82356001600160401b03811115611dd257600080fd5b611dde85828601611d65565b90969095509350505050565b60008060008060608587031215611e0057600080fd5b611e09856119eb565b9350611e1760208601611c3c565b925060408501356001600160401b03811115611e3257600080fd5b611e3e878288016118ef565b95989497509550505050565b600060208284031215611e5c57600080fd5b813561176781611937565b600080600080600080600060a0888a031215611e8257600080fd5b87356001600160401b0380821115611e9957600080fd5b611ea58b838c01611d65565b909950975060208a0135915080821115611ebe57600080fd5b611eca8b838c01611a9c565b965060408a0135915080821115611ee057600080fd5b611eec8b838c01611a9c565b955060608a0135915080821115611f0257600080fd5b611f0e8b838c01611a9c565b945060808a01359150808211156119cb57600080fd5b600060608284031215611f3657600080fd5b61176783836118d7565b606081526000611f536060830186611ca5565b8281036020840152611f658186611ca5565b905082810360408401526118018185611ca5565b600060608284031215611f8b57600080fd5b611f93611a44565b611f9c836119eb565b815260208301356020820152604083013560408201528091505092915050565b600181811c90821680611fd057607f821691505b6020821081036118e957634e487b7160e01b600052602260045260246000fd5b60006001600160401b038084111561200a5761200a611a2e565b8360051b602061201b818301611a6c565b86815291850191818101903684111561203357600080fd5b865b848110156120b95780358681111561204d5760008081fd5b880160603682900312156120615760008081fd5b612069611a44565b612072826119eb565b815261207f868301611c3c565b86820152604080830135898111156120975760008081fd5b6120a336828601611a9c565b9183019190915250845250918301918301612035565b50979650505050505050565b600080858511156120d557600080fd5b838611156120e257600080fd5b5050820193919092039150565b60008451612101818460208901611c81565b8201838582376000930192835250909392505050565b60208152816020820152818360408301376000818301604090810191909152601f909201601f19160101919050565b634e487b7160e01b600052603260045260246000fd5b634e487b7160e01b600052601160045260246000fd5b808201808211156107575761075761215c565b818103818111156107575761075761215c565b6001600160401b038116811461063557600080fd5b6000602082840312156121bf57600080fd5b813561176781612198565b6001600160401b038181168382160190808211156121ea576121ea61215c565b5092915050565b60008060006060848603121561220657600080fd5b83356001600160401b038082111561221d57600080fd5b61222987838801611a9c565b9450602086013591508082111561223f57600080fd5b61224b87838801611a9c565b9350604086013591508082111561226157600080fd5b5061226e86828701611a9c565b9150509250925092565b6040815263ffffffff8351166040820152602083015160608201526000604084015160a060808401526122ae60e0840182611ca5565b90506060850151603f198483030160a08501526122cb8282611ca5565b60809690960151151560c08501525050506001600160a01b039190911660209091015290565b60006040828403121561230357600080fd5b604051604081018181106001600160401b038211171561232557612325611a2e565b604052825181526020928301519281019290925250919050565b60006040828403121561235157600080fd5b61176783836122f1565b602080825282518282018190526000919060409081850190868401855b828110156123ad578151805163ffffffff16855286810151878601528501518585015260609093019290850190600101612378565b5091979650505050505050565b601f821115611754576000816000526020600020601f850160051c810160208610156123e35750805b601f850160051c820191505b81811015612402578281556001016123ef565b505050505050565b81516001600160401b0381111561242357612423611a2e565b612437816124318454611fbc565b846123ba565b602080601f83116001811461246c57600084156124545750858301515b600019600386901b1c1916600185901b178555612402565b600085815260208120601f198616915b8281101561249b5788860151825594840194600190910190840161247c565b50858210156124b95787850151600019600388901b60f8161c191681555b5050505050600190811b01905550565b600060208083018184528085518083526040925060408601915060408160051b87010184880160005b8381101561254657888303603f190185528151805163ffffffff1684528781015161ffff1688850152860151606087850181905261253281860183611ca5565b9689019694505050908601906001016124f2565b509098975050505050505050565b80820281158282048414176107575761075761215c565b60008261258857634e487b7160e01b600052601260045260246000fd5b500490565b60006080828403121561259f57600080fd5b6125a7611a44565b8251815260208301516125b981612198565b60208201526125cb84604085016122f1565b60408201529392505050565b6000602082840312156125e957600080fd5b815161176781611937565b60006020828403121561260657600080fd5b8151801515811461176757600080fd5b60008251612628818460208701611c81565b919091019291505056fea26469706673582212203cf09cee46aeb362f99551d7ac3a552c5c2a0a15834cab2d6df87ff85ebb4b0664736f6c63430008160033",
  "devdoc": {
    "errors": {
      "AddressEmptyCode(address)": [
        {
          "details": "There's no code at `target` (it is not a contract)."
        }
      ],
      "AddressInsufficientBalance(address)": [
        {
          "details": "The ETH balance of the account is not enough to perform the operation."
        }
      ],
      "FailedInnerCall()": [
        {
          "details": "A call to an address target failed. The target may have reverted."
        }
      ],
      "OwnableInvalidOwner(address)": [
        {
          "details": "The owner is not a valid owner account. (eg. `address(0)`)"
        }
      ],
      "OwnableUnauthorizedAccount(address)": [
        {
          "details": "The caller account is not authorized to perform an operation."
        }
      ],
      "SafeERC20FailedOperation(address)": [
        {
          "details": "An operation with an ERC20 token failed."
        }
      ]
    },
    "events": {
      "RateLimitsChanged((uint32,uint256,uint256)[])": {
        "params": {
          "rateLimitConfigs": "An array of `RateLimitConfig` structs representing the rate limit configurations set. - `dstEid`: The destination endpoint id. - `limit`: This represents the maximum allowed amount within a given window. - `window`: Defines the duration of the rate limiting window."
        }
      }
    },
    "kind": "dev",
    "methods": {
      "allowInitializePath((uint32,bytes32,uint64))": {
        "details": "This indicates to the endpoint that the OApp has enabled msgs for this particular path to be received.This defaults to assuming if a peer has been set, its initialized. Can be overridden by the OApp if there is other logic to determine this.",
        "params": {
          "origin": "The origin information containing the source endpoint and sender address."
        },
        "returns": {
          "_0": "Whether the path has been initialized."
        }
      },
      "combineOptions(uint32,uint16,bytes)": {
        "details": "If there is an enforced lzReceive option: - {gasLimit: 200k, msg.value: 1 ether} AND a caller supplies a lzReceive option: {gasLimit: 100k, msg.value: 0.5 ether} - The resulting options will be {gasLimit: 300k, msg.value: 1.5 ether} when the message is executed on the remote lzReceive() function.This presence of duplicated options is handled off-chain in the verifier/executor.",
        "params": {
          "_eid": "The endpoint ID.",
          "_extraOptions": "Additional options passed by the caller.",
          "_msgType": "The OAPP message type."
        },
        "returns": {
          "_0": "options The combination of caller specified options AND enforced options."
        }
      },
      "getAmountCanBeSent(uint32)": {
        "params": {
          "_dstEid": "The destination endpoint id."
        },
        "returns": {
          "amountCanBeSent": "The amount that can be sent.",
          "currentAmountInFlight": "The current amount that was sent."
        }
      },
      "isComposeMsgSender((uint32,bytes32,uint64),bytes,address)": {
        "details": "_origin The origin information containing the source endpoint and sender address.  - srcEid: The source chain endpoint ID.  - sender: The sender address on the src chain.  - nonce: The nonce of the message._message The lzReceive payload.Applications can optionally choose to implement separate composeMsg senders that are NOT the bridging layer.The default sender IS the OAppReceiver implementer.",
        "params": {
          "_sender": "The sender address."
        },
        "returns": {
          "_0": "isSender Is a valid sender."
        }
      },
      "lzReceive((uint32,bytes32,uint64),bytes32,bytes,address,bytes)": {
        "details": "Entry point for receiving messages or packets from the endpoint.Entry point for receiving msg/packet from the LayerZero endpoint.",
        "params": {
          "_executor": "The address of the executor for the received message.",
          "_extraData": "Additional arbitrary data provided by the corresponding executor.",
          "_guid": "The unique identifier for the received LayerZero message.",
          "_message": "The payload of the received message.",
          "_origin": "The origin information containing the source endpoint and sender address.  - srcEid: The source chain endpoint ID.  - sender: The sender address on the src chain.  - nonce: The nonce of the message."
        }
      },
      "nextNonce(uint32,bytes32)": {
        "details": "_srcEid The source endpoint ID._sender The sender address.The path nonce starts from 1. If 0 is returned it means that there is NO nonce ordered enforcement.Is required by the off-chain executor to determine the OApp expects msg execution is ordered.This is also enforced by the OApp.By default this is NOT enabled. ie. nextNonce is hardcoded to return 0.",
        "returns": {
          "nonce": "The next nonce."
        }
      },
      "oAppVersion()": {
        "returns": {
          "receiverVersion": "The version of the OAppReceiver.sol implementation.",
          "senderVersion": "The version of the OAppSender.sol implementation."
        }
      },
      "owner()": {
        "details": "Returns the address of the current owner."
      },
      "renounceOwnership()": {
        "details": "Leaves the contract without owner. It will not be possible to call `onlyOwner` functions. Can only be called by the current owner. NOTE: Renouncing ownership will leave the contract without an owner, thereby disabling any functionality that is only available to the owner."
      },
      "setDelegate(address)": {
        "details": "Only the owner/admin of the OApp can call this function.Provides the ability for a delegate to set configs, on behalf of the OApp, directly on the Endpoint contract.",
        "params": {
          "_delegate": "The address of the delegate to be set."
        }
      },
      "setEnforcedOptions((uint32,uint16,bytes)[])": {
        "details": "Sets the enforced options for specific endpoint and message type combinations.Only the owner/admin of the OApp can call this function.Provides a way for the OApp to enforce things like paying for PreCrime, AND/OR minimum dst lzReceive gas amounts etc.These enforced options can vary as the potential options/execution on the remote may differ as per the msgType. eg. Amount of lzReceive() gas necessary to deliver a lzCompose() message adds overhead you dont want to pay if you are only making a standard LayerZero message ie. lzReceive() WITHOUT sendCompose().",
        "params": {
          "_enforcedOptions": "An array of EnforcedOptionParam structures specifying enforced options."
        }
      },
      "setPeer(uint32,bytes32)": {
        "details": "Only the owner/admin of the OApp can call this function.Indicates that the peer is trusted to send LayerZero messages to this OApp.Set this to bytes32(0) to remove the peer address.Peer is a bytes32 to accommodate non-evm chains.",
        "params": {
          "_eid": "The endpoint ID.",
          "_peer": "The address of the peer to be associated with the corresponding endpoint."
        }
      },
      "transferOwnership(address)": {
        "details": "Transfers ownership of the contract to a new account (`newOwner`). Can only be called by the current owner."
      }
    },
    "version": 1
  },
  "userdoc": {
    "errors": {
      "RateLimitExceeded()": [
        {
          "notice": "Error that is thrown when an amount exceeds the rate_limit."
        }
      ]
    },
    "events": {
      "RateLimitsChanged((uint32,uint256,uint256)[])": {
        "notice": "Emitted when _setRateLimits occurs."
      }
    },
    "kind": "user",
    "methods": {
      "allowInitializePath((uint32,bytes32,uint64))": {
        "notice": "Checks if the path initialization is allowed based on the provided origin."
      },
      "combineOptions(uint32,uint16,bytes)": {
        "notice": "Combines options for a given endpoint and message type."
      },
      "endpoint()": {
        "notice": "Retrieves the LayerZero endpoint associated with the OApp."
      },
      "getAmountCanBeSent(uint32)": {
        "notice": "Get the current amount that can be sent to this destination endpoint id for the given rate limit window."
      },
      "isComposeMsgSender((uint32,bytes32,uint64),bytes,address)": {
        "notice": "Indicates whether an address is an approved composeMsg sender to the Endpoint."
      },
      "nextNonce(uint32,bytes32)": {
        "notice": "Retrieves the next nonce for a given source endpoint and sender address."
      },
      "oAppVersion()": {
        "notice": "Retrieves the OApp version information."
      },
      "peers(uint32)": {
        "notice": "Retrieves the peer (OApp) associated with a corresponding endpoint."
      },
      "setDelegate(address)": {
        "notice": "Sets the delegate address for the OApp."
      },
      "setPeer(uint32,bytes32)": {
        "notice": "Sets the peer address (OApp instance) for a corresponding endpoint."
      }
    },
    "version": 1
  },
  "storageLayout": {
    "storage": [
      {
        "astId": 1785,
        "contract": "contracts/MultiChainMessenger.sol:MultiChainMessenger",
        "label": "_owner",
        "offset": 0,
        "slot": "0",
        "type": "t_address"
      },
      {
        "astId": 785,
        "contract": "contracts/MultiChainMessenger.sol:MultiChainMessenger",
        "label": "peers",
        "offset": 0,
        "slot": "1",
        "type": "t_mapping(t_uint32,t_bytes32)"
      },
      {
        "astId": 1551,
        "contract": "contracts/MultiChainMessenger.sol:MultiChainMessenger",
        "label": "rateLimits",
        "offset": 0,
        "slot": "2",
        "type": "t_mapping(t_uint32,t_struct(RateLimit)1537_storage)"
      },
      {
        "astId": 1381,
        "contract": "contracts/MultiChainMessenger.sol:MultiChainMessenger",
        "label": "enforcedOptions",
        "offset": 0,
        "slot": "3",
        "type": "t_mapping(t_uint32,t_mapping(t_uint16,t_bytes_storage))"
      },
      {
        "astId": 2651,
        "contract": "contracts/MultiChainMessenger.sol:MultiChainMessenger",
        "label": "receivedNonces",
        "offset": 0,
        "slot": "4",
        "type": "t_mapping(t_uint32,t_uint64)"
      },
      {
        "astId": 2656,
        "contract": "contracts/MultiChainMessenger.sol:MultiChainMessenger",
        "label": "_locked",
        "offset": 0,
        "slot": "5",
        "type": "t_bool"
      }
    ],
    "types": {
      "t_address": {
        "encoding": "inplace",
        "label": "address",
        "numberOfBytes": "20"
      },
      "t_bool": {
        "encoding": "inplace",
        "label": "bool",
        "numberOfBytes": "1"
      },
      "t_bytes32": {
        "encoding": "inplace",
        "label": "bytes32",
        "numberOfBytes": "32"
      },
      "t_bytes_storage": {
        "encoding": "bytes",
        "label": "bytes",
        "numberOfBytes": "32"
      },
      "t_mapping(t_uint16,t_bytes_storage)": {
        "encoding": "mapping",
        "key": "t_uint16",
        "label": "mapping(uint16 => bytes)",
        "numberOfBytes": "32",
        "value": "t_bytes_storage"
      },
      "t_mapping(t_uint32,t_bytes32)": {
        "encoding": "mapping",
        "key": "t_uint32",
        "label": "mapping(uint32 => bytes32)",
        "numberOfBytes": "32",
        "value": "t_bytes32"
      },
      "t_mapping(t_uint32,t_mapping(t_uint16,t_bytes_storage))": {
        "encoding": "mapping",
        "key": "t_uint32",
        "label": "mapping(uint32 => mapping(uint16 => bytes))",
        "numberOfBytes": "32",
        "value": "t_mapping(t_uint16,t_bytes_storage)"
      },
      "t_mapping(t_uint32,t_struct(RateLimit)1537_storage)": {
        "encoding": "mapping",
        "key": "t_uint32",
        "label": "mapping(uint32 => struct RateLimiter.RateLimit)",
        "numberOfBytes": "32",
        "value": "t_struct(RateLimit)1537_storage"
      },
      "t_mapping(t_uint32,t_uint64)": {
        "encoding": "mapping",
        "key": "t_uint32",
        "label": "mapping(uint32 => uint64)",
        "numberOfBytes": "32",
        "value": "t_uint64"
      },
      "t_struct(RateLimit)1537_storage": {
        "encoding": "inplace",
        "label": "struct RateLimiter.RateLimit",
        "members": [
          {
            "astId": 1530,
            "contract": "contracts/MultiChainMessenger.sol:MultiChainMessenger",
            "label": "amountInFlight",
            "offset": 0,
            "slot": "0",
            "type": "t_uint256"
          },
          {
            "astId": 1532,
            "contract": "contracts/MultiChainMessenger.sol:MultiChainMessenger",
            "label": "lastUpdated",
            "offset": 0,
            "slot": "1",
            "type": "t_uint256"
          },
          {
            "astId": 1534,
            "contract": "contracts/MultiChainMessenger.sol:MultiChainMessenger",
            "label": "limit",
            "offset": 0,
            "slot": "2",
            "type": "t_uint256"
          },
          {
            "astId": 1536,
            "contract": "contracts/MultiChainMessenger.sol:MultiChainMessenger",
            "label": "window",
            "offset": 0,
            "slot": "3",
            "type": "t_uint256"
          }
        ],
        "numberOfBytes": "128"
      },
      "t_uint16": {
        "encoding": "inplace",
        "label": "uint16",
        "numberOfBytes": "2"
      },
      "t_uint256": {
        "encoding": "inplace",
        "label": "uint256",
        "numberOfBytes": "32"
      },
      "t_uint32": {
        "encoding": "inplace",
        "label": "uint32",
        "numberOfBytes": "4"
      },
      "t_uint64": {
        "encoding": "inplace",
        "label": "uint64",
        "numberOfBytes": "8"
      }
    }
  }
}